{
  "address": "0x1acde240D4990CBD97DC60D7E36fE254b16ea569",
  "abi": [
    {
      "anonymous": false,
      "inputs": [
        {
          "indexed": false,
          "internalType": "address",
          "name": "user",
          "type": "address"
        },
        {
          "components": [
            {
              "internalType": "string",
              "name": "name",
              "type": "string"
            },
            {
              "internalType": "string",
              "name": "description",
              "type": "string"
            },
            {
              "internalType": "string",
              "name": "thumbnailURI",
              "type": "string"
            },
            {
              "internalType": "string",
              "name": "linkURI",
              "type": "string"
            }
          ],
          "indexed": false,
          "internalType": "struct Profiles.Profile",
          "name": "profile",
          "type": "tuple"
        }
      ],
      "name": "Updated",
      "type": "event"
    },
    {
      "inputs": [
        {
          "components": [
            {
              "internalType": "string",
              "name": "name",
              "type": "string"
            },
            {
              "internalType": "string",
              "name": "description",
              "type": "string"
            },
            {
              "internalType": "string",
              "name": "thumbnailURI",
              "type": "string"
            },
            {
              "internalType": "string",
              "name": "linkURI",
              "type": "string"
            }
          ],
          "internalType": "struct Profiles.Profile",
          "name": "profile",
          "type": "tuple"
        }
      ],
      "name": "update",
      "outputs": [],
      "stateMutability": "nonpayable",
      "type": "function"
    }
  ],
  "transactionHash": "0xaec59793d127b61a28596ffcb7f8b3bdef38e9eeaceb74ba7a1c57fe621f4aeb",
  "args": [],
  "numDeployments": 2,
  "solcInputHash": "47a293ce817a55329c2518f2560851e4",
  "bytecode": "0x6080604052610e1060005534801561001657600080fd5b50610873806100266000396000f3fe608060405234801561001057600080fd5b506004361061002b5760003560e01c806361e9e7f914610030575b600080fd5b61004a600480360381019061004591906102e1565b61004c565b005b600054600160003373ffffffffffffffffffffffffffffffffffffffff1673ffffffffffffffffffffffffffffffffffffffff168152602001908152602001600020544261009a9190610363565b116100da576040517f08c379a00000000000000000000000000000000000000000000000000000000081526004016100d19061041a565b60405180910390fd5b8060208180600001906100ed9190610449565b90501115610130576040517f08c379a0000000000000000000000000000000000000000000000000000000008152600401610127906104f8565b60405180910390fd5b6102008180602001906101439190610449565b90501115610186576040517f08c379a000000000000000000000000000000000000000000000000000000000815260040161017d90610564565b60405180910390fd5b6108008180604001906101999190610449565b905011156101dc576040517f08c379a00000000000000000000000000000000000000000000000000000000081526004016101d3906105d0565b60405180910390fd5b6108008180606001906101ef9190610449565b90501115610232576040517f08c379a00000000000000000000000000000000000000000000000000000000081526004016102299061063c565b60405180910390fd5b42600160003373ffffffffffffffffffffffffffffffffffffffff1673ffffffffffffffffffffffffffffffffffffffff168152602001908152602001600020819055507f6151f8148c5a61207c872af5fae3972ecdfc09c6c1123efdb7abae02caba191533836040516102a792919061080d565b60405180910390a15050565b600080fd5b600080fd5b600080fd5b6000608082840312156102d8576102d76102bd565b5b81905092915050565b6000602082840312156102f7576102f66102b3565b5b600082013567ffffffffffffffff811115610315576103146102b8565b5b610321848285016102c2565b91505092915050565b6000819050919050565b7f4e487b7100000000000000000000000000000000000000000000000000000000600052601160045260246000fd5b600061036e8261032a565b91506103798361032a565b92508282101561038c5761038b610334565b5b828203905092915050565b600082825260208201905092915050565b7f70726f66696c65732063616e206f6e6c792062652075706461746564206f6e6360008201527f652070657220686f757200000000000000000000000000000000000000000000602082015250565b6000610404602a83610397565b915061040f826103a8565b604082019050919050565b60006020820190508181036000830152610433816103f7565b9050919050565b600080fd5b600080fd5b600080fd5b600080833560016020038436030381126104665761046561043a565b5b80840192508235915067ffffffffffffffff8211156104885761048761043f565b5b6020830192506001820236038313156104a4576104a3610444565b5b509250929050565b7f6e616d6520746f6f206c6f6e6700000000000000000000000000000000000000600082015250565b60006104e2600d83610397565b91506104ed826104ac565b602082019050919050565b60006020820190508181036000830152610511816104d5565b9050919050565b7f6465736372697074696f6e20746f6f206c6f6e67000000000000000000000000600082015250565b600061054e601483610397565b915061055982610518565b602082019050919050565b6000602082019050818103600083015261057d81610541565b9050919050565b7f7468756d626e61696c2075726920746f6f206c6f6e6700000000000000000000600082015250565b60006105ba601683610397565b91506105c582610584565b602082019050919050565b600060208201905081810360008301526105e9816105ad565b9050919050565b7f6c696e6b2075726920746f6f206c6f6e67000000000000000000000000000000600082015250565b6000610626601183610397565b9150610631826105f0565b602082019050919050565b6000602082019050818103600083015261065581610619565b9050919050565b600073ffffffffffffffffffffffffffffffffffffffff82169050919050565b60006106878261065c565b9050919050565b6106978161067c565b82525050565b600080fd5b600080fd5b600080fd5b600080833560016020038436030381126106c9576106c86106a7565b5b83810192508235915060208301925067ffffffffffffffff8211156106f1576106f061069d565b5b600182023603841315610707576107066106a2565b5b509250929050565b600082825260208201905092915050565b82818337600083830152505050565b6000601f19601f8301169050919050565b600061074c838561070f565b9350610759838584610720565b6107628361072f565b840190509392505050565b60006080830161078060008401846106ac565b8583036000870152610793838284610740565b925050506107a460208401846106ac565b85830360208701526107b7838284610740565b925050506107c860408401846106ac565b85830360408701526107db838284610740565b925050506107ec60608401846106ac565b85830360608701526107ff838284610740565b925050508091505092915050565b6000604082019050610822600083018561068e565b8181036020830152610834818461076d565b9050939250505056fea26469706673582212207d3627cf12dad02607f7fc976c09601748766980f9a39438e014876c5d4b7f4664736f6c63430008090033",
  "devdoc": {
    "author": "Olta",
    "kind": "dev",
    "methods": {
      "update((string,string,string,string))": {
        "params": {
          "profile": "a struct containing profile data      name: a display name for the user, limited to 32 bytes      description: a description about the user, limited to 512 bytes      thumbnailURI: a URI to a thumbnail image for the user, limited to 2048 bytes      linkURI: a URI to external profile or website, limited to 2048 bytes"
        }
      }
    },
    "title": "Profiles",
    "version": 1
  },
  "userdoc": {
    "kind": "user",
    "methods": {
      "update((string,string,string,string))": {
        "notice": "emits updated event with caller along with the profile calldata rate limted to once per hour per address"
      }
    },
    "notice": "This is a simple way to add profile data to the blockchain.",
    "version": 1
  },
  "storageLayout": {
    "storage": [
      {
        "astId": 21,
        "contract": "contracts/Profiles.sol:Profiles",
        "label": "rate",
        "offset": 0,
        "slot": "0",
        "type": "t_uint256"
      },
      {
        "astId": 25,
        "contract": "contracts/Profiles.sol:Profiles",
        "label": "lastUpdated",
        "offset": 0,
        "slot": "1",
        "type": "t_mapping(t_address,t_uint256)"
      }
    ],
    "types": {
      "t_address": {
        "encoding": "inplace",
        "label": "address",
        "numberOfBytes": "20"
      },
      "t_mapping(t_address,t_uint256)": {
        "encoding": "mapping",
        "key": "t_address",
        "label": "mapping(address => uint256)",
        "numberOfBytes": "32",
        "value": "t_uint256"
      },
      "t_uint256": {
        "encoding": "inplace",
        "label": "uint256",
        "numberOfBytes": "32"
      }
    }
  }
}